{
  "address": "0xe7f1725E7734CE288F8367e1Bb143E90bb3F0512",
  "abi": [
    {
      "inputs": [
        {
          "internalType": "address",
          "name": "priceFeedAddress",
          "type": "address"
        }
      ],
      "stateMutability": "nonpayable",
      "type": "constructor"
    },
    {
      "inputs": [],
      "name": "FundMe__NotOwner",
      "type": "error"
    },
    {
      "stateMutability": "payable",
      "type": "fallback"
    },
    {
      "inputs": [],
      "name": "MINIMUM_USD",
      "outputs": [
        {
          "internalType": "uint256",
          "name": "",
          "type": "uint256"
        }
      ],
      "stateMutability": "view",
      "type": "function"
    },
    {
      "inputs": [],
      "name": "cheaperwithdraw",
      "outputs": [],
      "stateMutability": "payable",
      "type": "function"
    },
    {
      "inputs": [],
      "name": "fund",
      "outputs": [],
      "stateMutability": "payable",
      "type": "function"
    },
    {
      "inputs": [
        {
          "internalType": "address",
          "name": "funder",
          "type": "address"
        }
      ],
      "name": "getAddressToAmountFunded",
      "outputs": [
        {
          "internalType": "uint256",
          "name": "",
          "type": "uint256"
        }
      ],
      "stateMutability": "view",
      "type": "function"
    },
    {
      "inputs": [
        {
          "internalType": "uint256",
          "name": "index",
          "type": "uint256"
        }
      ],
      "name": "getFunders",
      "outputs": [
        {
          "internalType": "address",
          "name": "",
          "type": "address"
        }
      ],
      "stateMutability": "view",
      "type": "function"
    },
    {
      "inputs": [],
      "name": "getOwner",
      "outputs": [
        {
          "internalType": "address",
          "name": "",
          "type": "address"
        }
      ],
      "stateMutability": "view",
      "type": "function"
    },
    {
      "inputs": [],
      "name": "getPriceFeed",
      "outputs": [
        {
          "internalType": "contract AggregatorV3Interface",
          "name": "",
          "type": "address"
        }
      ],
      "stateMutability": "view",
      "type": "function"
    },
    {
      "inputs": [],
      "name": "withdraw",
      "outputs": [],
      "stateMutability": "payable",
      "type": "function"
    },
    {
      "stateMutability": "payable",
      "type": "receive"
    }
  ],
  "transactionHash": "0x400884d032b7b3924699575119957a8650fc3fe1cc301da1c25f39611b8b75de",
  "args": [
    "0x5FbDB2315678afecb367f032d93F642f64180aa3"
  ],
  "numDeployments": 1,
  "solcInputHash": "e22ac0225862cca75a33b08ed0aa1303",
  "bytecode": "0x60a06040523480156200001157600080fd5b50604051620012eb380380620012eb833981810160405281019062000037919062000120565b3373ffffffffffffffffffffffffffffffffffffffff1660808173ffffffffffffffffffffffffffffffffffffffff1660601b8152505080600260006101000a81548173ffffffffffffffffffffffffffffffffffffffff021916908373ffffffffffffffffffffffffffffffffffffffff1602179055505062000152565b600080fd5b600073ffffffffffffffffffffffffffffffffffffffff82169050919050565b6000620000e882620000bb565b9050919050565b620000fa81620000db565b81146200010657600080fd5b50565b6000815190506200011a81620000ef565b92915050565b600060208284031215620001395762000138620000b6565b5b6000620001498482850162000109565b91505092915050565b60805160601c61116c6200017f6000396000818161037d015281816105bd0152610870015261116c6000f3fe60806040526004361061007f5760003560e01c80636b69a5921161004e5780636b69a59214610126578063893d20e8146101515780639e87a5cd1461017c578063b60d4288146101a75761008e565b80630343fb25146100985780633a7b6c74146100d55780633ccfd60b1461011257806367bf350b1461011c5761008e565b3661008e5761008c6101b1565b005b6100966101b1565b005b3480156100a457600080fd5b506100bf60048036038101906100ba9190610aa4565b6102eb565b6040516100cc9190610aea565b60405180910390f35b3480156100e157600080fd5b506100fc60048036038101906100f79190610b31565b610333565b6040516101099190610b6d565b60405180910390f35b61011a61037b565b005b6101246105bb565b005b34801561013257600080fd5b5061013b61085f565b6040516101489190610aea565b60405180910390f35b34801561015d57600080fd5b5061016661086c565b6040516101739190610b6d565b60405180910390f35b34801561018857600080fd5b50610191610894565b60405161019e9190610be7565b60405180910390f35b6101af6101b1565b005b6802b5e3af16b18800006101f0600260009054906101000a900473ffffffffffffffffffffffffffffffffffffffff16346108be90919063ffffffff16565b1015610231576040517f08c379a000000000000000000000000000000000000000000000000000000000815260040161022890610c5f565b60405180910390fd5b346000803373ffffffffffffffffffffffffffffffffffffffff1673ffffffffffffffffffffffffffffffffffffffff168152602001908152602001600020600082825461027f9190610cae565b925050819055506001339080600181540180825580915050600190039060005260206000200160009091909190916101000a81548173ffffffffffffffffffffffffffffffffffffffff021916908373ffffffffffffffffffffffffffffffffffffffff160217905550565b60008060008373ffffffffffffffffffffffffffffffffffffffff1673ffffffffffffffffffffffffffffffffffffffff168152602001908152602001600020549050919050565b60006001828154811061034957610348610d04565b5b9060005260206000200160009054906101000a900473ffffffffffffffffffffffffffffffffffffffff169050919050565b7f000000000000000000000000000000000000000000000000000000000000000073ffffffffffffffffffffffffffffffffffffffff163373ffffffffffffffffffffffffffffffffffffffff1614610400576040517f579610db00000000000000000000000000000000000000000000000000000000815260040160405180910390fd5b60005b6001805490508110156104ab5760006001828154811061042657610425610d04565b5b9060005260206000200160009054906101000a900473ffffffffffffffffffffffffffffffffffffffff16905060008060008373ffffffffffffffffffffffffffffffffffffffff1673ffffffffffffffffffffffffffffffffffffffff168152602001908152602001600020819055505080806104a390610d33565b915050610403565b50600067ffffffffffffffff8111156104c7576104c6610d7c565b5b6040519080825280602002602001820160405280156104f55781602001602082028036833780820191505090505b506001908051906020019061050b92919061099a565b5060003373ffffffffffffffffffffffffffffffffffffffff164760405161053290610ddc565b60006040518083038185875af1925050503d806000811461056f576040519150601f19603f3d011682016040523d82523d6000602084013e610574565b606091505b50509050806105b8576040517f08c379a00000000000000000000000000000000000000000000000000000000081526004016105af90610e3d565b60405180910390fd5b50565b7f000000000000000000000000000000000000000000000000000000000000000073ffffffffffffffffffffffffffffffffffffffff163373ffffffffffffffffffffffffffffffffffffffff1614610640576040517f579610db00000000000000000000000000000000000000000000000000000000815260040160405180910390fd5b600060018054806020026020016040519081016040528092919081815260200182805480156106c457602002820191906000526020600020905b8160009054906101000a900473ffffffffffffffffffffffffffffffffffffffff1673ffffffffffffffffffffffffffffffffffffffff168152602001906001019080831161067a575b5050505050905060005b815181101561074e5760008282815181106106ec576106eb610d04565b5b6020026020010151905060008060008373ffffffffffffffffffffffffffffffffffffffff1673ffffffffffffffffffffffffffffffffffffffff1681526020019081526020016000208190555050808061074690610d33565b9150506106ce565b50600067ffffffffffffffff81111561076a57610769610d7c565b5b6040519080825280602002602001820160405280156107985781602001602082028036833780820191505090505b50600190805190602001906107ae92919061099a565b5060003373ffffffffffffffffffffffffffffffffffffffff16476040516107d590610ddc565b60006040518083038185875af1925050503d8060008114610812576040519150601f19603f3d011682016040523d82523d6000602084013e610817565b606091505b505090508061085b576040517f08c379a000000000000000000000000000000000000000000000000000000000815260040161085290610e3d565b60405180910390fd5b5050565b6802b5e3af16b188000081565b60007f0000000000000000000000000000000000000000000000000000000000000000905090565b6000600260009054906101000a900473ffffffffffffffffffffffffffffffffffffffff16905090565b6000806108ca836108fa565b90506000670de0b6b3a764000085836108e39190610e5d565b6108ed9190610ee6565b9050809250505092915050565b6000808273ffffffffffffffffffffffffffffffffffffffff1663feaf968c6040518163ffffffff1660e01b815260040160a06040518083038186803b15801561094357600080fd5b505afa158015610957573d6000803e3d6000fd5b505050506040513d601f19601f8201168201806040525081019061097b9190610fa4565b5050509150506402540be40081610992919061101f565b915050919050565b828054828255906000526020600020908101928215610a13579160200282015b82811115610a125782518260006101000a81548173ffffffffffffffffffffffffffffffffffffffff021916908373ffffffffffffffffffffffffffffffffffffffff160217905550916020019190600101906109ba565b5b509050610a209190610a24565b5090565b5b80821115610a3d576000816000905550600101610a25565b5090565b600080fd5b600073ffffffffffffffffffffffffffffffffffffffff82169050919050565b6000610a7182610a46565b9050919050565b610a8181610a66565b8114610a8c57600080fd5b50565b600081359050610a9e81610a78565b92915050565b600060208284031215610aba57610ab9610a41565b5b6000610ac884828501610a8f565b91505092915050565b6000819050919050565b610ae481610ad1565b82525050565b6000602082019050610aff6000830184610adb565b92915050565b610b0e81610ad1565b8114610b1957600080fd5b50565b600081359050610b2b81610b05565b92915050565b600060208284031215610b4757610b46610a41565b5b6000610b5584828501610b1c565b91505092915050565b610b6781610a66565b82525050565b6000602082019050610b826000830184610b5e565b92915050565b6000819050919050565b6000610bad610ba8610ba384610a46565b610b88565b610a46565b9050919050565b6000610bbf82610b92565b9050919050565b6000610bd182610bb4565b9050919050565b610be181610bc6565b82525050565b6000602082019050610bfc6000830184610bd8565b92915050565b600082825260208201905092915050565b7f596f75206e65656420746f207370656e64206d6f726520455448210000000000600082015250565b6000610c49601b83610c02565b9150610c5482610c13565b602082019050919050565b60006020820190508181036000830152610c7881610c3c565b9050919050565b7f4e487b7100000000000000000000000000000000000000000000000000000000600052601160045260246000fd5b6000610cb982610ad1565b9150610cc483610ad1565b9250827fffffffffffffffffffffffffffffffffffffffffffffffffffffffffffffffff03821115610cf957610cf8610c7f565b5b828201905092915050565b7f4e487b7100000000000000000000000000000000000000000000000000000000600052603260045260246000fd5b6000610d3e82610ad1565b91507fffffffffffffffffffffffffffffffffffffffffffffffffffffffffffffffff821415610d7157610d70610c7f565b5b600182019050919050565b7f4e487b7100000000000000000000000000000000000000000000000000000000600052604160045260246000fd5b600081905092915050565b50565b6000610dc6600083610dab565b9150610dd182610db6565b600082019050919050565b6000610de782610db9565b9150819050919050565b7f43616c6c206661696c6564000000000000000000000000000000000000000000600082015250565b6000610e27600b83610c02565b9150610e3282610df1565b602082019050919050565b60006020820190508181036000830152610e5681610e1a565b9050919050565b6000610e6882610ad1565b9150610e7383610ad1565b9250817fffffffffffffffffffffffffffffffffffffffffffffffffffffffffffffffff0483118215151615610eac57610eab610c7f565b5b828202905092915050565b7f4e487b7100000000000000000000000000000000000000000000000000000000600052601260045260246000fd5b6000610ef182610ad1565b9150610efc83610ad1565b925082610f0c57610f0b610eb7565b5b828204905092915050565b600069ffffffffffffffffffff82169050919050565b610f3681610f17565b8114610f4157600080fd5b50565b600081519050610f5381610f2d565b92915050565b6000819050919050565b610f6c81610f59565b8114610f7757600080fd5b50565b600081519050610f8981610f63565b92915050565b600081519050610f9e81610b05565b92915050565b600080600080600060a08688031215610fc057610fbf610a41565b5b6000610fce88828901610f44565b9550506020610fdf88828901610f7a565b9450506040610ff088828901610f8f565b935050606061100188828901610f8f565b925050608061101288828901610f44565b9150509295509295909350565b600061102a82610f59565b915061103583610f59565b9250827f7fffffffffffffffffffffffffffffffffffffffffffffffffffffffffffffff048211600084136000841316161561107457611073610c7f565b5b817f800000000000000000000000000000000000000000000000000000000000000005831260008412600084131616156110b1576110b0610c7f565b5b827f800000000000000000000000000000000000000000000000000000000000000005821260008413600084121616156110ee576110ed610c7f565b5b827f7fffffffffffffffffffffffffffffffffffffffffffffffffffffffffffffff058212600084126000841216161561112b5761112a610c7f565b5b82820290509291505056fea264697066735822122026f1ebc2f0015dc24b838e64ec4e6ebe39bbefb5b8a6771f8bdc7d54a1b9850b64736f6c63430008080033",
  "devdoc": {
    "kind": "dev",
    "methods": {},
    "version": 1
  },
  "userdoc": {
    "kind": "user",
    "methods": {},
    "version": 1
  },
  "storageLayout": {
    "storage": [
      {
        "astId": 58,
        "contract": "contracts/FundMe.sol:FundMe",
        "label": "addressToAmountFunded",
        "offset": 0,
        "slot": "0",
        "type": "t_mapping(t_address,t_uint256)"
      },
      {
        "astId": 61,
        "contract": "contracts/FundMe.sol:FundMe",
        "label": "funders",
        "offset": 0,
        "slot": "1",
        "type": "t_array(t_address)dyn_storage"
      },
      {
        "astId": 73,
        "contract": "contracts/FundMe.sol:FundMe",
        "label": "priceFeed",
        "offset": 0,
        "slot": "2",
        "type": "t_contract(AggregatorV3Interface)45"
      }
    ],
    "types": {
      "t_address": {
        "encoding": "inplace",
        "label": "address",
        "numberOfBytes": "20"
      },
      "t_array(t_address)dyn_storage": {
        "base": "t_address",
        "encoding": "dynamic_array",
        "label": "address[]",
        "numberOfBytes": "32"
      },
      "t_contract(AggregatorV3Interface)45": {
        "encoding": "inplace",
        "label": "contract AggregatorV3Interface",
        "numberOfBytes": "20"
      },
      "t_mapping(t_address,t_uint256)": {
        "encoding": "mapping",
        "key": "t_address",
        "label": "mapping(address => uint256)",
        "numberOfBytes": "32",
        "value": "t_uint256"
      },
      "t_uint256": {
        "encoding": "inplace",
        "label": "uint256",
        "numberOfBytes": "32"
      }
    }
  }
}